{"abi":[{"type":"constructor","inputs":[{"name":"subscriptionId","type":"uint256","internalType":"uint256"}],"stateMutability":"nonpayable"},{"type":"receive","stateMutability":"payable"},{"type":"function","name":"acceptOwnership","inputs":[],"outputs":[],"stateMutability":"nonpayable"},{"type":"function","name":"bets","inputs":[{"name":"","type":"uint256","internalType":"uint256"}],"outputs":[{"name":"player","type":"address","internalType":"address payable"},{"name":"choice","type":"uint8","internalType":"uint8"},{"name":"amount","type":"uint256","internalType":"uint256"},{"name":"settled","type":"bool","internalType":"bool"}],"stateMutability":"view"},{"type":"function","name":"callbackGasLimit","inputs":[],"outputs":[{"name":"","type":"uint32","internalType":"uint32"}],"stateMutability":"view"},{"type":"function","name":"minBet","inputs":[],"outputs":[{"name":"","type":"uint256","internalType":"uint256"}],"stateMutability":"view"},{"type":"function","name":"numWords","inputs":[],"outputs":[{"name":"","type":"uint32","internalType":"uint32"}],"stateMutability":"view"},{"type":"function","name":"owner","inputs":[],"outputs":[{"name":"","type":"address","internalType":"address"}],"stateMutability":"view"},{"type":"function","name":"placeBet","inputs":[{"name":"choice","type":"uint8","internalType":"uint8"}],"outputs":[{"name":"","type":"uint256","internalType":"uint256"}],"stateMutability":"payable"},{"type":"function","name":"rawFulfillRandomWords","inputs":[{"name":"requestId","type":"uint256","internalType":"uint256"},{"name":"randomWords","type":"uint256[]","internalType":"uint256[]"}],"outputs":[],"stateMutability":"nonpayable"},{"type":"function","name":"requestConfirmations","inputs":[],"outputs":[{"name":"","type":"uint16","internalType":"uint16"}],"stateMutability":"view"},{"type":"function","name":"s_keyHash","inputs":[],"outputs":[{"name":"","type":"bytes32","internalType":"bytes32"}],"stateMutability":"view"},{"type":"function","name":"s_subscriptionId","inputs":[],"outputs":[{"name":"","type":"uint256","internalType":"uint256"}],"stateMutability":"view"},{"type":"function","name":"s_vrfCoordinator","inputs":[],"outputs":[{"name":"","type":"address","internalType":"contract IVRFCoordinatorV2Plus"}],"stateMutability":"view"},{"type":"function","name":"setCallbackGasLimit","inputs":[{"name":"_gas","type":"uint32","internalType":"uint32"}],"outputs":[],"stateMutability":"nonpayable"},{"type":"function","name":"setCoordinator","inputs":[{"name":"_vrfCoordinator","type":"address","internalType":"address"}],"outputs":[],"stateMutability":"nonpayable"},{"type":"function","name":"setMinBet","inputs":[{"name":"_min","type":"uint256","internalType":"uint256"}],"outputs":[],"stateMutability":"nonpayable"},{"type":"function","name":"transferOwnership","inputs":[{"name":"to","type":"address","internalType":"address"}],"outputs":[],"stateMutability":"nonpayable"},{"type":"function","name":"vrfCoordinator","inputs":[],"outputs":[{"name":"","type":"address","internalType":"address"}],"stateMutability":"view"},{"type":"event","name":"BetPlaced","inputs":[{"name":"requestId","type":"uint256","indexed":true,"internalType":"uint256"},{"name":"player","type":"address","indexed":true,"internalType":"address"},{"name":"choice","type":"uint8","indexed":false,"internalType":"uint8"},{"name":"amount","type":"uint256","indexed":false,"internalType":"uint256"}],"anonymous":false},{"type":"event","name":"BetSettled","inputs":[{"name":"requestId","type":"uint256","indexed":true,"internalType":"uint256"},{"name":"player","type":"address","indexed":true,"internalType":"address"},{"name":"result","type":"uint8","indexed":false,"internalType":"uint8"},{"name":"win","type":"bool","indexed":false,"internalType":"bool"},{"name":"payout","type":"uint256","indexed":false,"internalType":"uint256"}],"anonymous":false},{"type":"event","name":"CoordinatorSet","inputs":[{"name":"vrfCoordinator","type":"address","indexed":false,"internalType":"address"}],"anonymous":false},{"type":"event","name":"OwnershipTransferRequested","inputs":[{"name":"from","type":"address","indexed":true,"internalType":"address"},{"name":"to","type":"address","indexed":true,"internalType":"address"}],"anonymous":false},{"type":"event","name":"OwnershipTransferred","inputs":[{"name":"from","type":"address","indexed":true,"internalType":"address"},{"name":"to","type":"address","indexed":true,"internalType":"address"}],"anonymous":false},{"type":"error","name":"OnlyCoordinatorCanFulfill","inputs":[{"name":"have","type":"address","internalType":"address"},{"name":"want","type":"address","internalType":"address"}]},{"type":"error","name":"OnlyOwnerOrCoordinator","inputs":[{"name":"have","type":"address","internalType":"address"},{"name":"owner","type":"address","internalType":"address"},{"name":"coordinator","type":"address","internalType":"address"}]},{"type":"error","name":"ZeroAddress","inputs":[]}],"bytecode":{"object":"0x60806040527f787d74caea10b2b357790d5b5247c2f63d1d91572a9846f780606e4d953677ae60001b600355619c40600560006101000a81548163ffffffff021916908363ffffffff1602179055506003600560046101000a81548161ffff021916908361ffff1602179055506001600560066101000a81548163ffffffff021916908363ffffffff160217905550735c210ef41cd1a72de73bf76ec39637bb0d3d7bee6005600a6101000a81548173ffffffffffffffffffffffffffffffffffffffff021916908373ffffffffffffffffffffffffffffffffffffffff1602179055506509184e72a000600855348015620000fa57600080fd5b50604051620021ca380380620021ca833981810160405281019062000120919062000468565b6005600a9054906101000a900473ffffffffffffffffffffffffffffffffffffffff16338060008073ffffffffffffffffffffffffffffffffffffffff168273ffffffffffffffffffffffffffffffffffffffff1603620001b8576040517f08c379a0000000000000000000000000000000000000000000000000000000008152600401620001af90620004fb565b60405180910390fd5b816000806101000a81548173ffffffffffffffffffffffffffffffffffffffff021916908373ffffffffffffffffffffffffffffffffffffffff160217905550600073ffffffffffffffffffffffffffffffffffffffff168173ffffffffffffffffffffffffffffffffffffffff16146200023f576200023e81620002f960201b60201c565b5b505050600073ffffffffffffffffffffffffffffffffffffffff168173ffffffffffffffffffffffffffffffffffffffff1603620002a9576040517fd92e233d00000000000000000000000000000000000000000000000000000000815260040160405180910390fd5b80600260006101000a81548173ffffffffffffffffffffffffffffffffffffffff021916908373ffffffffffffffffffffffffffffffffffffffff1602179055505080600481905550506200058f565b3373ffffffffffffffffffffffffffffffffffffffff168173ffffffffffffffffffffffffffffffffffffffff16036200036a576040517f08c379a000000000000000000000000000000000000000000000000000000000815260040162000361906200056d565b60405180910390fd5b80600160006101000a81548173ffffffffffffffffffffffffffffffffffffffff021916908373ffffffffffffffffffffffffffffffffffffffff1602179055508073ffffffffffffffffffffffffffffffffffffffff1660008054906101000a900473ffffffffffffffffffffffffffffffffffffffff1673ffffffffffffffffffffffffffffffffffffffff167fed8889f560326eb138920d842192f0eb3dd22b4f139c87a2c57538e05bae127860405160405180910390a350565b600080fd5b6000819050919050565b62000442816200042d565b81146200044e57600080fd5b50565b600081519050620004628162000437565b92915050565b60006020828403121562000481576200048062000428565b5b6000620004918482850162000451565b91505092915050565b600082825260208201905092915050565b7f43616e6e6f7420736574206f776e657220746f207a65726f0000000000000000600082015250565b6000620004e36018836200049a565b9150620004f082620004ab565b602082019050919050565b600060208201905081810360008301526200051681620004d4565b9050919050565b7f43616e6e6f74207472616e7366657220746f2073656c66000000000000000000600082015250565b6000620005556017836200049a565b915062000562826200051d565b602082019050919050565b60006020820190508181036000830152620005888162000546565b9050919050565b611c2b806200059f6000396000f3fe6080604052600436106101025760003560e01c80638ac00021116100955780639eccacf6116100645780639eccacf614610312578063a3e56fa81461033d578063a4eb718c14610368578063b0fb162f14610391578063f2fde38b146103bc57610109565b80638ac00021146102685780638da5cb5b146102935780638ea98117146102be5780639619367d146102e757610109565b806345bb327b116100d157806345bb327b146101d257806379ba5097146101fd5780637ccfd7fc1461021457806388ea41b91461023f57610109565b80631fe543e31461010e57806322af00fa1461013757806324f746971461017757806343046844146101a257610109565b3661010957005b600080fd5b34801561011a57600080fd5b50610135600480360381019061013091906111c2565b6103e5565b005b34801561014357600080fd5b5061015e60048036038101906101599190611222565b6104ab565b60405161016e94939291906112d6565b60405180910390f35b34801561018357600080fd5b5061018c610515565b604051610199919061133a565b60405180910390f35b6101bc60048036038101906101b79190611381565b61052b565b6040516101c991906113ae565b60405180910390f35b3480156101de57600080fd5b506101e7610833565b6040516101f491906113e2565b60405180910390f35b34801561020957600080fd5b50610212610839565b005b34801561022057600080fd5b506102296109ce565b604051610236919061133a565b60405180910390f35b34801561024b57600080fd5b5061026660048036038101906102619190611222565b6109e4565b005b34801561027457600080fd5b5061027d6109ee565b60405161028a91906113ae565b60405180910390f35b34801561029f57600080fd5b506102a86109f4565b6040516102b5919061141e565b60405180910390f35b3480156102ca57600080fd5b506102e560048036038101906102e09190611465565b610a1d565b005b3480156102f357600080fd5b506102fc610bfe565b60405161030991906113ae565b60405180910390f35b34801561031e57600080fd5b50610327610c04565b60405161033491906114f1565b60405180910390f35b34801561034957600080fd5b50610352610c2a565b60405161035f919061141e565b60405180910390f35b34801561037457600080fd5b5061038f600480360381019061038a9190611538565b610c50565b005b34801561039d57600080fd5b506103a6610c74565b6040516103b39190611582565b60405180910390f35b3480156103c857600080fd5b506103e360048036038101906103de9190611465565b610c88565b005b600260009054906101000a900473ffffffffffffffffffffffffffffffffffffffff1673ffffffffffffffffffffffffffffffffffffffff163373ffffffffffffffffffffffffffffffffffffffff161461049b5733600260009054906101000a900473ffffffffffffffffffffffffffffffffffffffff166040517f1cf993f400000000000000000000000000000000000000000000000000000000815260040161049292919061159d565b60405180910390fd5b6104a6838383610c9c565b505050565b60096020528060005260406000206000915090508060000160009054906101000a900473ffffffffffffffffffffffffffffffffffffffff16908060000160149054906101000a900460ff16908060010154908060020160009054906101000a900460ff16905084565b600560009054906101000a900463ffffffff1681565b6000808260ff161480610541575060018260ff16145b610580576040517f08c379a000000000000000000000000000000000000000000000000000000000815260040161057790611623565b60405180910390fd5b6008543410156105c5576040517f08c379a00000000000000000000000000000000000000000000000000000000081526004016105bc9061168f565b60405180910390fd5b6000600260009054906101000a900473ffffffffffffffffffffffffffffffffffffffff1673ffffffffffffffffffffffffffffffffffffffff16639b1c385e6040518060c0016040528060035481526020016004548152602001600560049054906101000a900461ffff1661ffff168152602001600560009054906101000a900463ffffffff1663ffffffff168152602001600560069054906101000a900463ffffffff1663ffffffff168152602001610690604051806020016040528060011515815250610ec9565b8152506040518263ffffffff1660e01b81526004016106af9190611804565b6020604051808303816000875af11580156106ce573d6000803e3d6000fd5b505050506040513d601f19601f820116820180604052508101906106f2919061183b565b905060405180608001604052803373ffffffffffffffffffffffffffffffffffffffff1681526020018460ff168152602001348152602001600015158152506009600083815260200190815260200160002060008201518160000160006101000a81548173ffffffffffffffffffffffffffffffffffffffff021916908373ffffffffffffffffffffffffffffffffffffffff16021790555060208201518160000160146101000a81548160ff021916908360ff1602179055506040820151816001015560608201518160020160006101000a81548160ff0219169083151502179055509050503373ffffffffffffffffffffffffffffffffffffffff16817f4f1eed5e863a822b0f9eb960dfdab2cc5a99beec4b191f2a7a9c7e28e5a155248534604051610822929190611868565b60405180910390a380915050919050565b60035481565b600160009054906101000a900473ffffffffffffffffffffffffffffffffffffffff1673ffffffffffffffffffffffffffffffffffffffff163373ffffffffffffffffffffffffffffffffffffffff16146108c9576040517f08c379a00000000000000000000000000000000000000000000000000000000081526004016108c0906118dd565b60405180910390fd5b60008060009054906101000a900473ffffffffffffffffffffffffffffffffffffffff169050336000806101000a81548173ffffffffffffffffffffffffffffffffffffffff021916908373ffffffffffffffffffffffffffffffffffffffff1602179055506000600160006101000a81548173ffffffffffffffffffffffffffffffffffffffff021916908373ffffffffffffffffffffffffffffffffffffffff1602179055503373ffffffffffffffffffffffffffffffffffffffff168173ffffffffffffffffffffffffffffffffffffffff167f8be0079c531659141344cd1fd0a4f28419497f9722a3daafe3b4186f6b6457e060405160405180910390a350565b600560069054906101000a900463ffffffff1681565b8060088190555050565b60045481565b60008060009054906101000a900473ffffffffffffffffffffffffffffffffffffffff16905090565b610a256109f4565b73ffffffffffffffffffffffffffffffffffffffff163373ffffffffffffffffffffffffffffffffffffffff1614158015610aae5750600260009054906101000a900473ffffffffffffffffffffffffffffffffffffffff1673ffffffffffffffffffffffffffffffffffffffff163373ffffffffffffffffffffffffffffffffffffffff1614155b15610b1d5733610abc6109f4565b600260009054906101000a900473ffffffffffffffffffffffffffffffffffffffff166040517f061db9c1000000000000000000000000000000000000000000000000000000008152600401610b14939291906118fd565b60405180910390fd5b600073ffffffffffffffffffffffffffffffffffffffff168173ffffffffffffffffffffffffffffffffffffffff1603610b83576040517fd92e233d00000000000000000000000000000000000000000000000000000000815260040160405180910390fd5b80600260006101000a81548173ffffffffffffffffffffffffffffffffffffffff021916908373ffffffffffffffffffffffffffffffffffffffff1602179055507fd1a6a14209a385a964d036e404cb5cfb71f4000cdb03c9366292430787261be681604051610bf3919061141e565b60405180910390a150565b60085481565b600260009054906101000a900473ffffffffffffffffffffffffffffffffffffffff1681565b6005600a9054906101000a900473ffffffffffffffffffffffffffffffffffffffff1681565b80600560006101000a81548163ffffffff021916908363ffffffff16021790555050565b600560049054906101000a900461ffff1681565b610c90610f61565b610c9981610ff1565b50565b6000600960008581526020019081526020016000209050600073ffffffffffffffffffffffffffffffffffffffff168160000160009054906101000a900473ffffffffffffffffffffffffffffffffffffffff1673ffffffffffffffffffffffffffffffffffffffff161480610d2057508060020160009054906101000a900460ff165b15610d2b5750610ec4565b6000600284846000818110610d4357610d42611934565b5b90506020020135610d549190611992565b905060008260000160149054906101000a900460ff1660ff168260ff1614905060008115610e2b5760028460010154610d8d91906119f2565b905060008460000160009054906101000a900473ffffffffffffffffffffffffffffffffffffffff1673ffffffffffffffffffffffffffffffffffffffff1682604051610dd990611a8b565b60006040518083038185875af1925050503d8060008114610e16576040519150601f19603f3d011682016040523d82523d6000602084013e610e1b565b606091505b5050905080610e2957600091505b505b60018460020160006101000a81548160ff0219169083151502179055508360000160009054906101000a900473ffffffffffffffffffffffffffffffffffffffff1673ffffffffffffffffffffffffffffffffffffffff16877fabb716c49a1fcb73814d844c5f087f12cd1d1dbb1b957878a305ac9c667ba6a4858585604051610eb793929190611aa0565b60405180910390a3505050505b505050565b60607f92fd13387c7fe7befbc38d303d6468778fb9731bc4583f17d92989c6fcfdeaaa82604051602401610efd9190611b02565b604051602081830303815290604052907bffffffffffffffffffffffffffffffffffffffffffffffffffffffff19166020820180517bffffffffffffffffffffffffffffffffffffffffffffffffffffffff83818316178352505050509050919050565b60008054906101000a900473ffffffffffffffffffffffffffffffffffffffff1673ffffffffffffffffffffffffffffffffffffffff163373ffffffffffffffffffffffffffffffffffffffff1614610fef576040517f08c379a0000000000000000000000000000000000000000000000000000000008152600401610fe690611b69565b60405180910390fd5b565b3373ffffffffffffffffffffffffffffffffffffffff168173ffffffffffffffffffffffffffffffffffffffff160361105f576040517f08c379a000000000000000000000000000000000000000000000000000000000815260040161105690611bd5565b60405180910390fd5b80600160006101000a81548173ffffffffffffffffffffffffffffffffffffffff021916908373ffffffffffffffffffffffffffffffffffffffff1602179055508073ffffffffffffffffffffffffffffffffffffffff1660008054906101000a900473ffffffffffffffffffffffffffffffffffffffff1673ffffffffffffffffffffffffffffffffffffffff167fed8889f560326eb138920d842192f0eb3dd22b4f139c87a2c57538e05bae127860405160405180910390a350565b600080fd5b600080fd5b6000819050919050565b61113a81611127565b811461114557600080fd5b50565b60008135905061115781611131565b92915050565b600080fd5b600080fd5b600080fd5b60008083601f8401126111825761118161115d565b5b8235905067ffffffffffffffff81111561119f5761119e611162565b5b6020830191508360208202830111156111bb576111ba611167565b5b9250929050565b6000806000604084860312156111db576111da61111d565b5b60006111e986828701611148565b935050602084013567ffffffffffffffff81111561120a57611209611122565b5b6112168682870161116c565b92509250509250925092565b6000602082840312156112385761123761111d565b5b600061124684828501611148565b91505092915050565b600073ffffffffffffffffffffffffffffffffffffffff82169050919050565b600061127a8261124f565b9050919050565b61128a8161126f565b82525050565b600060ff82169050919050565b6112a681611290565b82525050565b6112b581611127565b82525050565b60008115159050919050565b6112d0816112bb565b82525050565b60006080820190506112eb6000830187611281565b6112f8602083018661129d565b61130560408301856112ac565b61131260608301846112c7565b95945050505050565b600063ffffffff82169050919050565b6113348161131b565b82525050565b600060208201905061134f600083018461132b565b92915050565b61135e81611290565b811461136957600080fd5b50565b60008135905061137b81611355565b92915050565b6000602082840312156113975761139661111d565b5b60006113a58482850161136c565b91505092915050565b60006020820190506113c360008301846112ac565b92915050565b6000819050919050565b6113dc816113c9565b82525050565b60006020820190506113f760008301846113d3565b92915050565b60006114088261124f565b9050919050565b611418816113fd565b82525050565b6000602082019050611433600083018461140f565b92915050565b611442816113fd565b811461144d57600080fd5b50565b60008135905061145f81611439565b92915050565b60006020828403121561147b5761147a61111d565b5b600061148984828501611450565b91505092915050565b6000819050919050565b60006114b76114b26114ad8461124f565b611492565b61124f565b9050919050565b60006114c98261149c565b9050919050565b60006114db826114be565b9050919050565b6114eb816114d0565b82525050565b600060208201905061150660008301846114e2565b92915050565b6115158161131b565b811461152057600080fd5b50565b6000813590506115328161150c565b92915050565b60006020828403121561154e5761154d61111d565b5b600061155c84828501611523565b91505092915050565b600061ffff82169050919050565b61157c81611565565b82525050565b60006020820190506115976000830184611573565b92915050565b60006040820190506115b2600083018561140f565b6115bf602083018461140f565b9392505050565b600082825260208201905092915050565b7f696e76616c69642063686f696365000000000000000000000000000000000000600082015250565b600061160d600e836115c6565b9150611618826115d7565b602082019050919050565b6000602082019050818103600083015261163c81611600565b9050919050565b7f7374616b6520746f6f20736d616c6c0000000000000000000000000000000000600082015250565b6000611679600f836115c6565b915061168482611643565b602082019050919050565b600060208201905081810360008301526116a88161166c565b9050919050565b6116b8816113c9565b82525050565b6116c781611127565b82525050565b6116d681611565565b82525050565b6116e58161131b565b82525050565b600081519050919050565b600082825260208201905092915050565b60005b8381101561172557808201518184015260208101905061170a565b60008484015250505050565b6000601f19601f8301169050919050565b600061174d826116eb565b61175781856116f6565b9350611767818560208601611707565b61177081611731565b840191505092915050565b600060c08301600083015161179360008601826116af565b5060208301516117a660208601826116be565b5060408301516117b960408601826116cd565b5060608301516117cc60608601826116dc565b5060808301516117df60808601826116dc565b5060a083015184820360a08601526117f78282611742565b9150508091505092915050565b6000602082019050818103600083015261181e818461177b565b905092915050565b60008151905061183581611131565b92915050565b6000602082840312156118515761185061111d565b5b600061185f84828501611826565b91505092915050565b600060408201905061187d600083018561129d565b61188a60208301846112ac565b9392505050565b7f4d7573742062652070726f706f736564206f776e657200000000000000000000600082015250565b60006118c76016836115c6565b91506118d282611891565b602082019050919050565b600060208201905081810360008301526118f6816118ba565b9050919050565b6000606082019050611912600083018661140f565b61191f602083018561140f565b61192c604083018461140f565b949350505050565b7f4e487b7100000000000000000000000000000000000000000000000000000000600052603260045260246000fd5b7f4e487b7100000000000000000000000000000000000000000000000000000000600052601260045260246000fd5b600061199d82611127565b91506119a883611127565b9250826119b8576119b7611963565b5b828206905092915050565b7f4e487b7100000000000000000000000000000000000000000000000000000000600052601160045260246000fd5b60006119fd82611127565b9150611a0883611127565b9250828202611a1681611127565b91508282048414831517611a2d57611a2c6119c3565b5b5092915050565b600081905092915050565b7f7b7d000000000000000000000000000000000000000000000000000000000000600082015250565b6000611a75600283611a34565b9150611a8082611a3f565b600282019050919050565b6000611a9682611a68565b9150819050919050565b6000606082019050611ab5600083018661129d565b611ac260208301856112c7565b611acf60408301846112ac565b949350505050565b611ae0816112bb565b82525050565b602082016000820151611afc6000850182611ad7565b50505050565b6000602082019050611b176000830184611ae6565b92915050565b7f4f6e6c792063616c6c61626c65206279206f776e657200000000000000000000600082015250565b6000611b536016836115c6565b9150611b5e82611b1d565b602082019050919050565b60006020820190508181036000830152611b8281611b46565b9050919050565b7f43616e6e6f74207472616e7366657220746f2073656c66000000000000000000600082015250565b6000611bbf6017836115c6565b9150611bca82611b89565b602082019050919050565b60006020820190508181036000830152611bee81611bb2565b905091905056fea264697066735822122087751e9238f0dc52ec2363c6dff1da4487aaf3ef503eb1da34791efee9cdc1ea64736f6c63430008130033","linkReferences":{}},"methodIdentifiers":{"acceptOwnership()":"79ba5097","bets(uint256)":"22af00fa","callbackGasLimit()":"24f74697","minBet()":"9619367d","numWords()":"7ccfd7fc","owner()":"8da5cb5b","placeBet(uint8)":"43046844","rawFulfillRandomWords(uint256,uint256[])":"1fe543e3","requestConfirmations()":"b0fb162f","s_keyHash()":"45bb327b","s_subscriptionId()":"8ac00021","s_vrfCoordinator()":"9eccacf6","setCallbackGasLimit(uint32)":"a4eb718c","setCoordinator(address)":"8ea98117","setMinBet(uint256)":"88ea41b9","transferOwnership(address)":"f2fde38b","vrfCoordinator()":"a3e56fa8"},"id":8}